:020000040800F2
:10000000005000206D170008B1030008B30300087A
:1000100000000000000000000000000000000000E0
:10002000000000000000000000000000B503000810
:100030000000000000000000B7030008B90300083A
:10004000BD170008BD170008BD170008BD17000840
:10005000BD170008BD170008BD170008BD17000830
:10006000BD170008BD170008BD170008BD17000820
:10007000BD170008BD170008BD170008BD17000810
:10008000BD170008BD170008BD17000800000000DC
:10009000BD170008BD170008BD170008BD170008F0
:1000A000BD170008BD170008BD170008BD170008E0
:1000B000BD170008BD170008BD170008BD170008D0
:1000C000002934D00123002210B488422CD301240B
:1000D0002407A14204D2814202D209011B01F8E7A0
:1000E000E400A14204D2814202D249005B00F8E759
:1000F000884201D3401A1A434C08A04202D3001B85
:100100005C0822438C08A04202D3001B9C082243B7
:10011000CC08A04202D3001BDC082243002803D0F5
:100120001B0901D00909E3E7101C10BC704701B599
:10013000002000F00BF802BD0029F8D003B5FFF74E
:10014000C1FF0EBC4243891A1847C0467047C046DB
:10015000002B11D1002A0FD1002900D1002802D094
:100160000021C943081C07B4024802A140180290AC
:1001700003BDC046D9FFFFFF03B4684601B502982E
:1001800001F04AFB019B9E4602B00CBC7047C04682
:10019000D0400B1CD1409C46203AD34018435242D9
:1001A00063469340184370479140031C90409C461F
:1001B000203A9340194352426346D3401943704753
:1001C00010B5002903D100F007F8203002E0081C28
:1001D00000F002F810BDC0461C2101231B04984208
:1001E00001D3000C10391B0A984201D3000A0839C8
:1001F0001B09984201D30009043902A2105C40187F
:100200007047C04604030202010101010000000022
:100210000000000010B5064C2378002B07D1054BD9
:10022000002B02D0044800E000BF0123237010BD62
:100230000400002000000000F8180008044B10B56E
:10024000002B03D00349044800E000BF10BDC046A6
:100250000000000008000020F818000870B588B001
:100260001422002103A801F0CFFA1B4BD96A042203
:100270001143D962D96A0A400092009AD96A802251
:100280001143D962D96A0A400192019ADA6A0125BA
:100290002A43DA62DB6A2B400293029BA026F60512
:1002A00000222021300001F0DDF980239B0103931F
:1002B0000A4B04930024059403A9094801F004F9AA
:1002C0002023039304950594069403A9300001F0BC
:1002D000FBF808B070BDC0460010024000002110BD
:1002E0000008005010B50948094B0360E1235B0288
:1002F000436000238360C36003610C224261836119
:10030000C3610362436200F03DFB10BD200000208A
:100310000044004010B59EB03822002110A801F022
:1003200073FA142200210BA801F06EFA2822002192
:1003300001A801F069FA13490B68134A1A40802397
:100340001B0113430B60102310930F3B17930024E2
:100350001894A0231B0219931A9410A800F0E8FB2C
:100360000F230B930C940D940E940F9400210BA863
:1003700000F0A6FE02230193059401A800F09AFF65
:100380001EB010BD00700040FFE7FFFF10B500F089
:1003900047FBFFF7BFFFFFF761FFFFF7A3FFA020B9
:1003A0002021C00501F064F9642000F05BFBF6E752
:1003B0007047FEE77047704710B500F045FB10BD71
:1003C000054B5A6B01210A435A63996B80225205EF
:1003D0000A439A637047C0460010024010B586B0C9
:1003E00004001422002101A801F00EFA2268114B2A
:1003F0009A4201D006B010BD0F4B996B8022920239
:100400000A439A63D96A01221143D962DB6A1A400E
:100410000092009B0C2301930A3B02930023039359
:100420000333049301330593A02001A9C00501F013
:100430004BF8DFE70044004000100240F8B504002C
:10044000016883680269134342691343C269134315
:100450000A68B848024013430B6022685368B649E3
:100460000B40E1680B435360A1692268B34B9A4289
:1004700001D0236A19439368B14803400B4393604A
:100480002368B04A93420DD0AF4A93422AD0AF4A74
:10049000934260D0AE4A93425FD0A84A934232D092
:1004A00010250BE0AB4AD16C03220A40022A42D04D
:1004B00014D8002A41D0012A41D104259F4A9342F1
:1004C00055D080231B02E2699A4200D18CE0082DAE
:1004D00000D96CE1AB00A04AD3589F46032A30D123
:1004E0000825EBE79B4AD16C0C220A40082A2AD047
:1004F00005D8002A29D0042A29D10425DEE70C2AB0
:1005000027D10825DAE7934AD26CC02109010A40B5
:10051000802109018A4222D007D8002A21D08021D7
:10052000C9008A421FD10425C8E7C02109018A42B7
:100530001BD10825C2E70225C0E70125BEE710252B
:10054000BCE71025BAE70225B8E70025B6E7102575
:10055000B4E71025B2E70025B0E70025AEE7022595
:10056000ACE70025AAE71025A8E71025A6E7042D8B
:1005700035D00BD8002D2CD0022D05D1754B1B6822
:10058000DB062FD4754805E00125A6E0082D1ED115
:1005900080200002626853009B18834200D909E161
:1005A0001303834200D207E1070E06025008002120
:1005B000801979410023FFF7CBFD694BC218694BC5
:1005C0009A4200D9FAE02368D860002585E0012529
:1005D00083E000F04FFE0028DCD100257DE000F034
:1005E0004FFAF8E76048D5E7082D61D8AB005F4ABD
:1005F000D3589F4600F03EFE400063685B08C01879
:100600006168FFF75DFD0004000C594A0300103BD0
:10061000934200D9D4E00F2302009A434008083BDC
:10062000184010432368D86057E000F033FE4000C4
:1006300063685B08C0186168FFF742FD0004000CA6
:100640000025E2E7434B1B68DB060BD563685808BF
:10065000484B9C4660446168FFF732FD0004000C83
:100660000025D2E763685808434B9C4660446168A4
:10067000FFF726FD0004000C0025C6E700F000FA95
:10068000400063685B08C0186168FFF719FD00044B
:10069000000C0025B9E76368580880235B029C467C
:1006A00060446168FFF70CFD0004000C0025ACE716
:1006B00001250020A9E700F0DDFD63685B08C01894
:1006C0006168FFF7FDFC0004000C294A0300103BA1
:1006D000934200D976E02368D860002323666366DE
:1006E0002800F8BD00F0D6FD63685B08C01861689B
:1006F000FFF7E6FC0004000C0025E6E7154B1B683D
:10070000DB060BD563685808174B9C46604461684C
:10071000FFF7D6FC0004000C0025D6E763685808F4
:100720000E4B9C4660446168FFF7CAFC0004000C55
:100730000025CAE7F369FFEFFFCFFFFF0048004045
:10074000FFF4FFFF0038014000440040004C00402F
:100750000050004000100240101900080024F4006E
:1007600000FDFFFFFFFC0F0000093D0034190008E9
:10077000EFFF000000127A000048E80100F080F965
:1007800063685B08C0186168FFF79AFC0004000CFE
:1007900000259AE76368580880231B029C46604442
:1007A0006168FFF78DFC0004000C00258DE7012532
:1007B00000208AE7012590E701258EE701258CE7D7
:1007C00001258AE7012588E7436ADB0706D5026829
:1007D00053682C490B40816A0B435360436A9B0763
:1007E00006D50268536828490B40C16A0B43536021
:1007F000436A5B0706D50268536824490B40016BC6
:100800000B435360436A1B0706D5026853682049AF
:100810000B40416B0B435360436ADB0606D502680D
:1008200093681C490B40816B0B439360436A9B06A2
:1008300006D50268936818490B40C16B0B4393605F
:10084000436A5B060BD50268536814490B40016C80
:100850000B43536080235B03026C9A420AD0436AC5
:100860001B0606D5026853680D490B40816C0B438B
:1008700053607047026853680A490B40416C0B4350
:100880005360ECE7FFFFFDFFFFFFFEFFFFFFFBFFF5
:10089000FF7FFFFFFFEFFFFFFFDFFFFFFFFFEFFF28
:1008A000FFFFF7FFFFFF9FFFF8B5CE46474680B535
:1008B00006000D0017009946089B98463368DC69CE
:1008C0002C40641B63425C41BC421ED14346013351
:1008D000F4D000F0C1F84B46C01A404502D8434658
:1008E000002BEBD1326813680A490B401360326861
:1008F0009368A331FF318B43936020237367B36701
:1009000050330022F254032000E00020C0BCB9465E
:10091000B046F8BD5FFEFFFF30B583B00400002392
:10092000C36700F099F8050023681B681B070CD407
:1009300023681B685B0715D420236367A3675033C4
:100940000022E254002003B030BD80210C4B009304
:100950000300002289032000FFF7A6FF0028E7D04C
:100960000320F0E78021064B00932B000022C903EF
:100970002000FFF799FF0028DED00320E3E7C04600
:10098000FFFFFF0110B5041E2ED0436F002B21D0B6
:10099000242363672268136801218B4313602000BE
:1009A000FFF74CFD012814D0636A002B18D1226890
:1009B00053680E490B405360226893682A218B4389
:1009C00093602268136829390B4313602000FFF7F6
:1009D000A3FF10BD70330022C254FFF7FFFCD7E71E
:1009E0002000FFF7F1FEE2E70120F2E7FFB7FFFF8B
:1009F00010B50400094B1868FA218900FFF760FB65
:100A000000F06AFE002801D0012010BD0130002254
:100A10002100404200F030FE0020F6E700000020F8
:100A200010B5084A136840210B4313600020FFF7FC
:100A3000DFFF041E02D00124200010BDFFF7C0FC20
:100A4000FAE7C04600200240024A136801331360EF
:100A50007047C046A0000020014B18687047C04690
:100A6000A000002070B50400FFF7F6FF0500631C2E
:100A700000D00134FFF7F0FF401BA042FAD370BD55
:100A800010B5264BD9680C230B40082B42D00C2BF9
:100A900011D0042B09D0214B5A68520B0723134065
:100AA000013380200002984010BD1C4B1B68DB0600
:100AB00032D51B48F8E78A0C0F231340194AD25C41
:100AC000890D032319400131144BDB68DB0309D581
:100AD0005001801A8301181AC00080184002FFF7E5
:100AE000EFFAE1E70D4B1B68DB0609D553019B1AB2
:100AF0009801C01AC00080180002FFF7E1FAD3E79E
:100B000053019B1A9801C01AC00080188002FFF799
:100B1000D7FAC9E70448C7E70448C5E70010024010
:100B200000093D007019000800127A000024F4004A
:100B3000F0B583B0041E00D19BE2C44BDA680C25EB
:100B40001540DE6880235B021E400368DB0736D554
:100B5000082D2CD00C2D28D063688022520293429D
:100B600055D0A022D202934258D0B84B1A68B84947
:100B70000A401A601A68802149020A400192019ACB
:100B80001A68B4490A401A606368002B52D0FFF714
:100B900063FF0700AD4B1B689B0310D4FFF75CFF9E
:100BA000C01B6428F6D9032064E2002ED4D0A74BE2
:100BB0001B689B0303D56368002B00D15CE22368AC
:100BC0009B076CD5E3689A0605D5A04802682021EA
:100BD0000A4302608B43042D3CD00C2D38D0002BEF
:100BE00000D1AEE099490A680920824313430B60A3
:100BF000FFF732FF0600954B1B685B0700D597E0B7
:100C0000FFF72AFF801B0228F5D9032032E28F4A22
:100C1000116880235B020B431360B5E78B4B1968A7
:100C20008022D2020A431A601968802252020A43C3
:100C30001A60A9E7FFF710FF0700844B1B689B03AE
:100C4000BDD5FFF709FFC01B6428F6D9032011E2C8
:100C5000002EC4D17D4A1268520702D5002B00D164
:100C60000CE27A4E72687C490A40216909020A4303
:100C70007260326809218A4313433360FFF700FF33
:100C8000F26812090F231340744AD35CD840744BA6
:100C900018600020FFF7ACFE002800D0EAE12368CE
:100CA000DB062CD5002D5FD1684B1B689B0503D557
:100CB000E369002B00D1E3E1644A536869490B40C2
:100CC000616A0B43536053681B021B0A216A0906C1
:100CD0000B435360636A590B013180231B028B4025
:100CE000D16809090F220A405C498A5CD3405C4AFA
:100CF00013600020FFF77CFE002800D0BAE12368D3
:100D00001B077DD56369002B67D0504A136D012105
:100D10000B431365FFF7A0FE06004C4B1B6D9B07B2
:100D20006ED4FFF799FE801B0228F6D90320A1E1BB
:100D300046494B68484A13402269120213434B60EC
:100D4000ADE7424A136801218B431360FFF784FE2D
:100D500006003E4B1B685B07A1D5FFF77DFE801B9D
:100D60000228F6D9032085E1E369002B22D0374A17
:100D7000116880235B000B431360FFF76DFE0600D4
:100D8000324B1B689B0506D4FFF766FE801B0228CA
:100D9000F6D903206EE12D4A536832490B40616A4F
:100DA0000B43536053681B021B0A216A09060B435D
:100DB0005360A4E7254A13682B490B401360FFF7E3
:100DC0004BFE0600214B1B689B0598D5FFF744FEA0
:100DD000801B0228F6D903204CE11C4A136D012127
:100DE0008B431365FFF738FE0600184B1B6D9B07FE
:100DF00006D5FFF731FE801B0228F6D9032039E122
:100E000023685B0700D48CE0104B9B6BDB001BD48A
:100E10000E4A916B80235B050B4393630126134BB2
:100E20001B68DB0526D5A36880225200934235D08B
:100E3000002B4BD1054B1A6D0B490A401A651A6DF0
:100E40000B490A401A652FE00026E8E7001002402F
:100E5000FFFFFEFFFFFFFBFFFFE0FFFF5819000849
:100E600000000020FF1FFFFFFFFEFFFF007000409B
:100E7000FFFBFFFF884A116880235B000B43136070
:100E8000FFF7EAFD0700844B1B68DB05CBD4FFF7B7
:100E9000E3FDC01B6428F6D90320EBE07F4A116D07
:100EA00080235B000B431365A368002B28D0FFF75A
:100EB000D3FD0700794B1B6D9B0530D4FFF7CCFDAC
:100EC000C01B774B9842F5D90320D3E0A022D20073
:100ED000934209D0714B1A6D72490A401A651A6D16
:100EE00071490A401A65DFE76C4B196D013AFF3A08
:100EF0000A431A65196D802252000A431A65D3E726
:100F0000FFF7AAFD0700654B1B6D9B0507D5FFF793
:100F1000A3FDC01B624B9842F5D90320AAE0012E25
:100F200021D023689B063CD5A369002B21D05B4BC5
:100F300099680120014399605A6B02435A635B4AE6
:100F4000116A80239B010B431362FFF785FD0600A6
:100F5000524B9B689B0724D4FFF77EFD801B022821
:100F6000F6D9032086E04D4A936B51490B409363B9
:100F7000D7E74A4A936801218B4393604B4A136A2F
:100F80004C490B401362FFF767FD0600434B9B681B
:100F90009B0706D5FFF760FD801B0228F6D90320CA
:100FA00068E0A36A002B00D16CE00C2D49D0022B25
:100FB00012D03A4A136840490B401360FFF74CFDCA
:100FC0000400364B1B689B0139D5FFF745FD001B1C
:100FD0000228F6D903204DE0304A136836490B4009
:100FE0001360FFF739FD05002C4B1B689B0106D5EC
:100FF000FFF732FD401B0228F6D903203AE02749CB
:10100000CB682E4A1340E26A206B0243606B0243B6
:101010001343CB600A6880235B0413430B60FFF724
:101020001BFD04001D4B1B689B0106D4FFF714FD3C
:10103000001B0228F6D903201CE000201AE0002043
:1010400018E0012B20D0154BDA6880235B02134097
:10105000E16A8B421AD1F0239B031340216B8B4230
:1010600016D1C0231B041A40636B9A4212D1002090
:1010700000E0012003B0F0BD0120FBE70120F9E70B
:101080000120F7E70020F5E70120F3E70120F1E771
:101090000120EFE70120EDE7007000400010024062
:1010A00088130000FFFEFFFFFFFBFFFF0000014071
:1010B000FFFFFFEFFFDFFFFFFFFFFFFEFFFF02FF6E
:1010C00070B504000D00002800D1B7E05F4B1A682E
:1010D000012313408B420AD25C490B6801229343DF
:1010E0002B430B600B681A40AA4200D0A8E023688B
:1010F0009B0706D5564AD368F0218B43A1680B4362
:10110000D3602368DB0764D56368022B09D0032B07
:1011100029D0012B2DD04E4A1268920506D4012009
:101120008BE04B4A1268920300D48BE04849CA68AE
:10113000032082431343CB60FFF78EFC06006368F5
:10114000022B1CD0032B28D0012B34D0404BDB6862
:101150000C221A423DD0FFF77FFC801B3D4B98428A
:10116000F4D9032069E03A4A12689201DED40120E2
:1011700063E0374A12685207D8D401205DE0344B4F
:10118000DA680C231340082B23D0FFF765FC801B83
:10119000304A9042F3D903204FE02D4BDA680C23FC
:1011A00013400C2B15D0FFF757FC801B294B98429E
:1011B000F3D9032041E0264BDA680C231340042BBB
:1011C00007D0FFF749FC801B224B9842F3D903203C
:1011D00033E01E4B1A6801231340AB4209D91B4967
:1011E0000B68012293432B430B600B681A40AA4201
:1011F0002AD123685B0706D5154AD36816490B40E8
:10120000E1680B43D36023681B0707D51049CB68FF
:10121000124A13402269D2001343CB60FFF730FC1F
:101220000B4BDA6812090F2313400D4AD35CD840E8
:101230000C4B18600020FFF7DBFB70BD0120FCE7C2
:101240000120FAE70120F8E70120F6E7002002403C
:101250000010024088130000FFF8FFFFFFC7FFFFE8
:101260005819000800000020014B18687047C0465C
:101270000000002010B5FFF7F7FF044BDA68120AF0
:1012800007231340024AD35CD84010BD001002402F
:101290006819000810B5FFF7E7FF044BDA68D20AB7
:1012A00007231340024AD35CD84010BD001002400F
:1012B0006819000870B5040082231B0102681A42F5
:1012C0005CD0764B9B6BDB0000D59FE0734A916B43
:1012D00080235B050B4393630125714B1B68DB0582
:1012E00000D495E06D4B1A68C0239B031A406168D7
:1012F0000B40934200D1A0E0C0239B020A001A4099
:101300009A4200D1A1E0654B1A6DC0239B021000E8
:1013100018401A421FD01940814202D023689B0610
:1013200008D4C0239B02A2681340834213D02368D1
:101330001B0510D5594B186D5A4A02401E6D80216D
:10134000090331431965196D574E314019651A6506
:10135000C30500D580E06368C022920219001140E5
:10136000914200D188E04D490B6DC0229202606825
:10137000024013430B65012D00D187E02368DB0792
:1013800006D5464AD36C03218B43E1680B43D364F3
:1013900023689B0706D5414AD36C0C218B432169F6
:1013A0000B43D36423685B0706D53C4AD36C3F49A3
:1013B0000B4061690B43D36423681B0706D5374A8A
:1013C000D36C3B490B40A1690B43D3642368DB0515
:1013D00006D5324AD36C33490B40E1690B43D364E1
:1013E00023685B0606D52D4AD36C32490B40616AEF
:1013F0000B43D36423681B064ED5284AD36C2E4971
:101400000B40216A0B43D364002046E0002564E7CB
:10141000234A116880235B000B431360FFF71CFB1A
:1014200006001F4B1B68DB0500D55BE7FFF714FBCD
:10143000801B6428F5D903202FE0C0239B03A068FC
:101440000340934200D057E75DE7144B1B689B03B2
:1014500000D458E7012020E0FFF7FEFA06000F4B0A
:101460001B6D9B0500D576E7FFF7F6FA801B134B43
:101470009842F4D9032010E008490A681048024055
:10148000C0208003034013430B606CE70A008B6BA2
:101490000C490B40936371E7002070BD00100240BF
:1014A00000700040FFFFFCFFFFFFF7FFFFF3FFFFAF
:1014B000FFCFFFFFFFFFFFFBFFFFF3FF88130000DD
:1014C000FFFFCFFFFFFFFFEFF0B5C64600B50023DB
:1014D00038E0052600E00026A64034003C430232F6
:1014E0009200584E9451584A14684246D2432600FE
:1014F0004546AE434D68ED0302D545462C432600D4
:10150000514C26606468260016404D68AD0302D534
:1015100045462C4326004C4C6660A46826001640C5
:101520004D68ED0202D545462C432600464CA66088
:10153000E46822404D68AD0201D542462243424C48
:10154000E26001330C682200DA4078D001229A4030
:1015500025001540A8461442F3D04C68022C01D057
:10156000122C0ED1DC080834A400275807261E4090
:10157000B6000F25B540AF430D69B5402E003E4380
:1015800026504C68661E012E03D9112C01D0122C56
:1015900012D184685F000326BE40B4432600CC68A5
:1015A000BC4034438460446894434A68160901226D
:1015B00032409A402243426004685E0003221700D2
:1015C000B740BC434D682A40B24022430260C46821
:1015D000BC438A68B2402243C2604A68D200B0D598
:1015E0001A4C626B0126324362639A08941CA40071
:1015F000144EA75903261E40B4000F26A640B74339
:10160000A026F605B04200D165E7114EB0420ED0DB
:10161000104EB0420DD0104EB0420CD00F4EB04222
:101620000BD00F4EB04200D153E7062654E70126F7
:1016300052E7022650E703264EE704264CE780BC1B
:10164000B846F0BD00000140000401400010024017
:101650000004005000080050000C00500010005022
:10166000001C0050002A01D0816170478162FCE7B4
:10167000436959404161704770B5002811DB830808
:10168000134DC0339B005C5903221040C000FC3254
:1016900016008640B44389010A40824022435A51D1
:1016A00070BD0F230340083B9B0806339B00094A8B
:1016B000944663445D6803242040C000FF22140068
:1016C0008440A54389010A4082402A435A60E7E7E3
:1016D00000E100E000ED00E0013880235B04984267
:1016E0000FD2094A50600948036A1B021B0AC02135
:1016F00009060B4303620023936007331360002045
:1017000070470120FCE7C04610E000E000ED00E07B
:10171000104B1968802252000A431A60DA680E4999
:101720000A40DA601A680D490A401A609A68012175
:101730008A439A601A680A490A401A60DA680949B5
:101740000A40DA6000221A61074B802212059A6073
:101750007047C046001002400C40FF88F6FFF6FEBE
:10176000FFFFFBFFFFFF02FF00ED00E00D48854695
:10177000002103E00C4B5B58435004310B480C4BE9
:1017800042189A42F6D30B4A02E000231360043257
:10179000094B9A42F9D3FFF7BBFF00F011F8FEF7AF
:1017A000F5FDFEE7005000208C1900080000002025
:1017B0000400002004000020A4000020FEE7000038
:1017C00070B500260C4D0D4C641BA410A64209D127
:1017D000002600F091F80A4D0A4C641BA410A642A2
:1017E00005D170BDB300EB5898470136EEE7B30062
:1017F000EB5898470136F2E784190008841900086D
:10180000841900088819000803008218934200D147
:10181000704719700133F9E7F0B506000F001500A5
:101820001C0085B08B4263D801D1824260D8210070
:101830002800FEF7C5FC390000903000FEF7C0FC20
:10184000009B21001B1A1A0028000393FEF7ACFC32
:1018500000900191B94245D801D1B04242D8009BD5
:10186000019C01200021039AF61AA741FEF79CFC77
:1018700004000D00039B002B2BD0019B009ADB077B
:1018800050081843019B5908039B9C46B9422CD829
:1018900001D1B04229D832003B00121A8B410126F7
:1018A00092185B410027B6185F4101235B429C44BC
:1018B0006346002BEAD130003900039AFEF768FC3A
:1018C000039AA4197D4106000F00FEF76DFC241A4F
:1018D0008D410A9B002B01D01E605F602000290013
:1018E00005B0F0BD00240025C4E7B6197F41DCE750
:1018F00000240025EDE70000F8B5C046F8BC08BCA0
:101900009E467047F8B5C046F8BC08BC9E46704776
:10191000B6060008E4060008FC060008AE0700084A
:101920007C070008AE070008AE070008AE070008F5
:1019300094070008F40500082A0600084406000879
:10194000B00600087C060008B0060008B0060008D3
:10195000B006000896060008000000000000000025
:101960000102030406070809000000000102030445
:0C197000030406080C10182030000000D2
:08197C009CFEFF7F010000004A
:041984003D02000818
:04198800150200083C
:04198C000000200037
:040000050800176D6B
:00000001FF
